:100000000C9462000C948A000C948A000C948A0070
:100010000C948A000C948A000C948A000C948A0038
:100020000C948A000C948A000C948A000C948A0028
:100030000C948A000C948A000C948A000C948A0018
:100040000C94A3030C948A000C948A000C948A00EC
:100050000C948A000C948A000C948A000C948A00F8
:100060000C948A000C948A000000000024002700F1
:100070002A0000000000250028002B0000000000DE
:1000800023002600290004040404040404040202DA
:100090000202020203030303030301020408102007
:1000A0004080010204081020010204081020000012
:1000B0000008000201000003040700000000000027
:1000C0000000B40511241FBECFEFD8E0DEBFCDBFC6
:1000D00011E0A0E0B1E0E8EFFBE002C005900D9276
:1000E000A838B107D9F721E0A8E8B1E001C01D9216
:1000F000A13BB207E1F710E0C2E6D0E004C02197CF
:10010000FE010E94F405C136D107C9F70E94ED0334
:100110000C94FA050C940000AF92BF92CF92DF923C
:10012000EF92FF920F931F93CF93DF936C017B01AC
:100130008B01040F151FEB015E01AE18BF08C0173D
:10014000D10759F06991D601ED91FC910190F081B0
:10015000E02DC6010995892B79F7C501DF91CF9173
:100160001F910F91FF90EF90DF90CF90BF90AF90D5
:100170000895833081F028F4813099F08230A9F01D
:1001800008958730A9F08830C9F08430B1F48091A7
:1001900080008F7D03C0809180008F7780938000E6
:1001A000089584B58F7784BD089584B58F7DFBCF86
:1001B0008091B0008F778093B00008958091B00057
:1001C0008F7DF9CFCF93DF93282F30E0F901E255EF
:1001D000FF4F8491F901E656FF4FD491F901EA5798
:1001E000FF4FC491CC23A1F081110E94B900EC2FE4
:1001F000F0E0EE0FFF1FE458FF4FA591B491EC9192
:10020000ED2381E090E009F480E0DF91CF91089543
:1002100080E090E0FACF1F93CF93DF93282F30E058
:10022000F901E255FF4F8491F901E656FF4FD49151
:10023000F901EA57FF4FC491CC23A9F0162F811181
:100240000E94B900EC2FF0E0EE0FFF1FEE58FF4FB9
:10025000A591B4918FB7F894EC91111108C0D09585
:10026000DE23DC938FBFDF91CF911F910895DE2BAA
:10027000F8CFCF93DF9390E0FC01E656FF4F249137
:100280008A579F4FFC0184918823D1F090E0880F1A
:10029000991FFC01E859FF4FA591B491FC01EE585C
:1002A000FF4FC591D49161110EC09FB7F8948C9106
:1002B000E22FE0958E238C932881E223E8839FBF71
:1002C000DF91CF9108958FB7F894EC91E22BEC93E6
:1002D0008FBFF6CF3FB7F89480918D0190918E013A
:1002E000A0918F01B091900126B5A89B05C02F3F2A
:1002F00019F00196A11DB11D3FBFBA2FA92F982F4C
:100300008827BC01CD01620F711D811D911D42E046
:10031000660F771F881F991F4A95D1F708958F920E
:100320009F92AF92BF92CF92DF92EF92FF924B01DA
:100330005C010E946A016B017C010E946A016C19D8
:100340007D098E099F09683E734081059105A8F3D8
:1003500021E0821A9108A108B10888EEC80E83E056
:10036000D81EE11CF11C81149104A104B10429F7E9
:10037000FF90EF90DF90CF90BF90AF909F908F90C5
:100380000895089590E080E008958F929F92AF9233
:10039000BF920F931F93CF93DF93CDB7DEB7A19793
:1003A0000FB6F894DEBF0FBECDBF19A2423008F4DD
:1003B0004AE08E010F5D1F4F842E912CB12CA12C91
:1003C000A50194010E94D205E62FB901CA01EA30C5
:1003D00044F5E05DD801EE938D01232B242B252BD2
:1003E00079F790E080E0109769F0FD01019000201E
:1003F000E9F73197AF014A1B5B0BBD0189E991E039
:100400000E948C00A1960FB6F894DEBF0FBECDBF40
:10041000DF91CF911F910F91BF90AF909F908F90E0
:100420000895E95CD7CFFC0101900020E9F73197EE
:10043000AF01481B590BBC0189E991E00C948C0079
:10044000CF93DF93EC0160E08E810E940B0161E0AD
:100450008E810E940B0160E08E810E940B018BE86F
:1004600091E00197F1F7DF91CF910895CF92DF925C
:10047000EF92FF920F931F93CF93DF936C017C0158
:1004800087E0E80EF11CD0E0C0E0062F10E0B801D4
:100490000C2E02C0759567950A94E2F76170F7011A
:1004A00081917F010E940B012196C430D10579F71B
:1004B000C601DF91CF911F910F91FF90EF90DF90D8
:1004C000CF900C942002CF92DF92EF92FF920F9385
:1004D0001F93CF93DF93EC01F62E642F8C810E9443
:1004E0000B018D818F3F19F060E00E940B010F2DF1
:1004F00010E08F8584FF25C06E0187E0C80ED11CF7
:10050000F12CE12CB8010E2C02C0759567950A9468
:10051000E2F76170F60181916F010E940B01FFEF1C
:10052000EF1AFF0A88E0E816F10461F7CE01DF91C7
:10053000CF911F910F91FF90EF90DF90CF900C948F
:100540002002B80184E0759567958A95E1F7CE01A0
:100550000E9436026F2DCE01DF91CF911F910F9136
:10056000FF90EF90DF90CF900C94360240E0682F20
:1005700089E991E00C94630281E00E94B6028BE36A
:100580009FE10197F1F70895CF93DF93823029F42B
:100590009091A80198609093A8018093AC0110926B
:1005A000AD0180E48093AE0180E18093AF0180E5EE
:1005B0008093B00161E080919D010E94390180919A
:1005C0009E018F3F19F061E00E94390161E0809146
:1005D0009F010E943901C9E9D1E09E0129593140AA
:1005E0008091A80184FD0BC084E090E0219628173B
:1005F000390744F461E08E810E943901EECF88E032
:1006000090E0F4CF8BE39DE00197F1F760E08091FB
:100610009D010E940B0160E080919F010E940B01EF
:1006200080919E018F3F19F060E00E940B01809144
:10063000A80184FD34C063E089E991E00E9436029C
:10064000CBE4D6E4CE010197F1F763E089E991E0CC
:100650000E9436022197F1F763E089E991E00E9458
:10066000360283E592E00197F1F762E089E991E0D3
:100670000E9436028091A80180620E94B60284E046
:100680008093A9018CE00E94B6020E94BC0282E025
:100690008093AA0186E0DF91CF910C94B60280622C
:1006A0000E94B6028BE496E40197F1F78091A801CD
:1006B00080620E94B60283E592E00197F1F7809193
:1006C000A80180620E94B602D5CF9091AC01691753
:1006D00010F06FEF690FE62FF0E0E756FE4F9489B8
:1006E000890F80680C94B60241E00E94630281E0A9
:1006F00090E00895CF92DF92EF92FF926C01990FF4
:10070000EE08FF08F7FE16C041E06DE289E991E0CE
:100710000E94630266277727CB016C197D098E0939
:100720009F094AE00E94C5010196FF90EF90DF907B
:10073000CF9008954AE0C701B601FF90EF90DF9097
:10074000CF900C94C5011F920F920FB60F921124F7
:100750002F933F938F939F93AF93BF938091890182
:1007600090918A01A0918B01B0918C013091880108
:1007700023E0230F2D3758F50196A11DB11D2093BD
:1007800088018093890190938A01A0938B01B09393
:100790008C0180918D0190918E01A0918F01B0917B
:1007A00090010196A11DB11D80938D0190938E0142
:1007B000A0938F01B0939001BF91AF919F918F91C2
:1007C0003F912F910F900FBE0F901F90189526E824
:1007D000230F0296A11DB11DD2CF789484B58260FB
:1007E00084BD84B5816084BD85B5826085BD85B5D5
:1007F000816085BD80916E00816080936E00109253
:1008000081008091810082608093810080918100CD
:10081000816080938100809180008160809380005E
:100820008091B10084608093B1008091B0008160BC
:100830008093B00080917A00846080937A008091E8
:100840007A00826080937A0080917A008160809340
:100850007A0080917A00806880937A001092C100BB
:1008600060E08FE00E94390160E080E10E94390180
:1008700060E081E10E94390160E082E10E9439017B
:1008800060E083E10E94390182E00E94C4028CE0B2
:1008900091E00E94130261E080E00E94650388E11C
:1008A00091E00E94130260EA7FE080E090E00E9405
:1008B0008F0161E08FE00E940B0161E080E10E9406
:1008C0000B0161E081E10E940B0161E082E10E9485
:1008D0000B0161E083E10E940B010E94BC0260E019
:1008E00080E00E94650389E291E00E94130260E0CB
:1008F00084E00E9465038BE291E00E94130260E0B5
:1009000088E00E9465038DE291E00E94130260E09E
:100910008CE00E9465038FE291E00E941302C0E028
:10092000D0E060E080E00E94650389E291E00E94EF
:10093000130261E081E00E9465038091970190912C
:1009400098010E947A0360E084E00E9465038BE2D4
:1009500091E00E94130261E085E00E9465038091AE
:100960009501909196010E947A0360E088E00E94D0
:1009700065038DE291E00E94130261E089E00E942C
:10098000650380919301909194010E947A0360E045
:100990008CE00E9465038FE291E00E94130261E007
:1009A0008DE00E94650380919101909192010E94D7
:1009B0007A038FE00E94E200892B49F4809197012D
:1009C00090919801019690939801809397018FE000
:1009D0000E94E200892BD9F380E10E94E200892B7A
:1009E00049F480919501909196010196909396011A
:1009F0008093950180E10E94E200892BD9F381E187
:100A00000E94E200892B49F4809193019091940116
:100A10000196909394018093930181E10E94E200FA
:100A2000892BD9F382E10E94E200892B49F480915D
:100A3000910190919201019690939201809391017E
:100A400082E10E94E200892BD9F383E10E94E20057
:100A5000892B09F043C060919701709198014091F2
:100A600095015091960120919301309194018091CC
:100A7000910190919201FB01E40FF51FE20FF31F2A
:100A8000E80FF91FEF2B09F46AC04617570764F502
:100A900026173707BCF586179707A4F50E94BC02F6
:100AA00081E391E00E94130268EB7BE080E090E03C
:100AB0000E948F010E94BC0210929801109297012F
:100AC0001092960110929501109294011092930148
:100AD00010929201109291010E94BC02209709F499
:100AE00020CF0E9400001DCF641775075CF4241707
:100AF000350744F4841795072CF40E94BC028DE35B
:100B000091E0D0CF621773075CF44217530744F4A7
:100B1000821793072CF40E94BC0289E491E0C2CFB3
:100B2000681779077CF44817590764F428173907C0
:100B30004CF460E080E00E9465030E94BC0285E501
:100B400091E0B0CF0E94BC0281E691E00E941302C6
:100B500061E080E00E9465038DE691E0A3CF0E94F2
:100B6000BC0289E791E09ECFE9E9F1E013821282AD
:100B700084E091E0918380838CE084838FEF858390
:100B80008BE0868385E0878384E0808783E08187AC
:100B900082E082871386148615861686178681E082
:100BA0000C94C402A1E21A2EAA1BBB1BFD010DC0AE
:100BB000AA1FBB1FEE1FFF1FA217B307E407F5070D
:100BC00020F0A21BB30BE40BF50B661F771F881FE9
:100BD000991F1A9469F760957095809590959B017F
:100BE000AC01BD01CF010895EE0FFF1F0590F491F8
:080BF000E02D0994F894FFCFF9
:100BF8000000000074038C00C201C101456C6563EC
:100C080074726F6E6963200020566F74696E672076
:100C18004D616368696E65200041004200430044ED
:100C280000412069732057696E6E65720042206921
:100C3800732057696E6E6572004320697320576987
:100C48006E6E657200442069732057696E6E657216
:100C58000020546965205570204F722000204E6F87
:100C680020526573756C7420004E6F20566F74693E
:080C78006E672E2E2E2E0000E7
:00000001FF
